:1000000000308A0019280000223084008313000881
:10001000031918280130F800F701F70B0D28F80B29
:100020000C284A30F700F70B13281628800B0A28F3
:10003000080003081F398300193083169900A63081
:10004000980090308312980083161F149F141F1578
:100050009F1107309C008313003087008312071024
:10006000831686010130831286005030A100FA30D9
:10007000A2000420A10B3728831605148312051C47
:100080007E28831686010230831286000430A10088
:10009000FA30A2000420A10B482883168601013003
:1000A000831286000430A100FA30A2000420A10BC4
:1000B0005428831686010230831286000430A10082
:1000C000FA30A2000420A10B6028831686010130BB
:1000D000831286000430A100FA30A2000420A10B94
:1000E0006C28831686010230831286000430A1003A
:1000F000FA30A2000420A10B7828832883168601F9
:100100000130831286003C288C1E84281A08A00027
:100110002008413A03199028033A0319922893289A
:08012000071093280714630087
:02400E00793FF8
:00000001FF
;PIC16F876A
;CRC=526C  CREATED="23-jun.-22 08:16"
